{
    "_format": "hh-sol-artifact-1",
    "contractName": "Filestorage",
    "sourceName": "contracts/FileStorage.sol",
    "abi": [
        {
            "anonymous": false,
            "inputs": [
                {
                    "indexed": false,
                    "internalType": "address",
                    "name": "user",
                    "type": "address"
                },
                {
                    "indexed": false,
                    "internalType": "string",
                    "name": "name",
                    "type": "string"
                }
            ],
            "name": "StoreFile",
            "type": "event"
        },
        {
            "inputs": [
                {
                    "internalType": "address",
                    "name": "_userAddress",
                    "type": "address"
                }
            ],
            "name": "retrievePrivate",
            "outputs": [
                {
                    "components": [
                        {
                            "internalType": "string",
                            "name": "cid",
                            "type": "string"
                        },
                        {
                            "internalType": "bool",
                            "name": "status",
                            "type": "bool"
                        },
                        {
                            "internalType": "string",
                            "name": "name",
                            "type": "string"
                        },
                        {
                            "internalType": "string",
                            "name": "description",
                            "type": "string"
                        }
                    ],
                    "internalType": "struct Filestorage.FileProperty[]",
                    "name": "",
                    "type": "tuple[]"
                }
            ],
            "stateMutability": "view",
            "type": "function"
        },
        {
            "inputs": [],
            "name": "retrievePublic",
            "outputs": [
                {
                    "components": [
                        {
                            "internalType": "string",
                            "name": "cid",
                            "type": "string"
                        },
                        {
                            "internalType": "bool",
                            "name": "status",
                            "type": "bool"
                        },
                        {
                            "internalType": "string",
                            "name": "name",
                            "type": "string"
                        },
                        {
                            "internalType": "string",
                            "name": "description",
                            "type": "string"
                        }
                    ],
                    "internalType": "struct Filestorage.FileProperty[]",
                    "name": "",
                    "type": "tuple[]"
                }
            ],
            "stateMutability": "view",
            "type": "function"
        },
        {
            "inputs": [
                {
                    "internalType": "address",
                    "name": "_userAddress",
                    "type": "address"
                },
                {
                    "internalType": "string",
                    "name": "_cid",
                    "type": "string"
                },
                {
                    "internalType": "bool",
                    "name": "_status",
                    "type": "bool"
                },
                {
                    "internalType": "string",
                    "name": "_name",
                    "type": "string"
                },
                {
                    "internalType": "string",
                    "name": "_description",
                    "type": "string"
                }
            ],
            "name": "store",
            "outputs": [],
            "stateMutability": "nonpayable",
            "type": "function"
        }
    ],
    "bytecode": "0x608060405234801561001057600080fd5b50610de7806100206000396000f3fe608060405234801561001057600080fd5b50600436106100415760003560e01c806363b022da14610046578063806da9bd14610062578063a8d537b914610080575b600080fd5b610060600480360381019061005b91906109df565b6100b0565b005b61006a6102ad565b6040516100779190610c78565b60405180910390f35b61009a60048036038101906100959190610c9a565b6104dd565b6040516100a79190610c78565b60405180910390f35b60006040518060800160405280868152602001851515815260200184815260200183815250905060001515841515141561018a576002819080600181540180825580915050600190039060005260206000209060040201600090919091909150600082015181600001908051906020019061012c92919061074c565b5060208201518160010160006101000a81548160ff021916908315150217905550604082015181600201908051906020019061016992919061074c565b50606082015181600301908051906020019061018692919061074c565b5050505b600160008773ffffffffffffffffffffffffffffffffffffffff1673ffffffffffffffffffffffffffffffffffffffff168152602001908152602001600020819080600181540180825580915050600190039060005260206000209060040201600090919091909150600082015181600001908051906020019061020f92919061074c565b5060208201518160010160006101000a81548160ff021916908315150217905550604082015181600201908051906020019061024c92919061074c565b50606082015181600301908051906020019061026992919061074c565b5050507f5407bc61063394774970de9bd00c27f68ce41d8d9ce80f9bb26f34f49068680b338460405161029d929190610d20565b60405180910390a1505050505050565b60606002805480602002602001604051908101604052809291908181526020016000905b828210156104d4578382906000526020600020906004020160405180608001604052908160008201805461030490610d7f565b80601f016020809104026020016040519081016040528092919081815260200182805461033090610d7f565b801561037d5780601f106103525761010080835404028352916020019161037d565b820191906000526020600020905b81548152906001019060200180831161036057829003601f168201915b505050505081526020016001820160009054906101000a900460ff161515151581526020016002820180546103b190610d7f565b80601f01602080910402602001604051908101604052809291908181526020018280546103dd90610d7f565b801561042a5780601f106103ff5761010080835404028352916020019161042a565b820191906000526020600020905b81548152906001019060200180831161040d57829003601f168201915b5050505050815260200160038201805461044390610d7f565b80601f016020809104026020016040519081016040528092919081815260200182805461046f90610d7f565b80156104bc5780601f10610491576101008083540402835291602001916104bc565b820191906000526020600020905b81548152906001019060200180831161049f57829003601f168201915b505050505081525050815260200190600101906102d1565b50505050905090565b6060600160008373ffffffffffffffffffffffffffffffffffffffff1673ffffffffffffffffffffffffffffffffffffffff168152602001908152602001600020805480602002602001604051908101604052809291908181526020016000905b82821015610741578382906000526020600020906004020160405180608001604052908160008201805461057190610d7f565b80601f016020809104026020016040519081016040528092919081815260200182805461059d90610d7f565b80156105ea5780601f106105bf576101008083540402835291602001916105ea565b820191906000526020600020905b8154815290600101906020018083116105cd57829003601f168201915b505050505081526020016001820160009054906101000a900460ff1615151515815260200160028201805461061e90610d7f565b80601f016020809104026020016040519081016040528092919081815260200182805461064a90610d7f565b80156106975780601f1061066c57610100808354040283529160200191610697565b820191906000526020600020905b81548152906001019060200180831161067a57829003601f168201915b505050505081526020016003820180546106b090610d7f565b80601f01602080910402602001604051908101604052809291908181526020018280546106dc90610d7f565b80156107295780601f106106fe57610100808354040283529160200191610729565b820191906000526020600020905b81548152906001019060200180831161070c57829003601f168201915b5050505050815250508152602001906001019061053e565b505050509050919050565b82805461075890610d7f565b90600052602060002090601f01602090048101928261077a57600085556107c1565b82601f1061079357805160ff19168380011785556107c1565b828001600101855582156107c1579182015b828111156107c05782518255916020019190600101906107a5565b5b5090506107ce91906107d2565b5090565b5b808211156107eb5760008160009055506001016107d3565b5090565b6000604051905090565b600080fd5b600080fd5b600073ffffffffffffffffffffffffffffffffffffffff82169050919050565b600061082e82610803565b9050919050565b61083e81610823565b811461084957600080fd5b50565b60008135905061085b81610835565b92915050565b600080fd5b600080fd5b6000601f19601f8301169050919050565b7f4e487b7100000000000000000000000000000000000000000000000000000000600052604160045260246000fd5b6108b48261086b565b810181811067ffffffffffffffff821117156108d3576108d261087c565b5b80604052505050565b60006108e66107ef565b90506108f282826108ab565b919050565b600067ffffffffffffffff8211156109125761091161087c565b5b61091b8261086b565b9050602081019050919050565b82818337600083830152505050565b600061094a610945846108f7565b6108dc565b90508281526020810184848401111561096657610965610866565b5b610971848285610928565b509392505050565b600082601f83011261098e5761098d610861565b5b813561099e848260208601610937565b91505092915050565b60008115159050919050565b6109bc816109a7565b81146109c757600080fd5b50565b6000813590506109d9816109b3565b92915050565b600080600080600060a086880312156109fb576109fa6107f9565b5b6000610a098882890161084c565b955050602086013567ffffffffffffffff811115610a2a57610a296107fe565b5b610a3688828901610979565b9450506040610a47888289016109ca565b935050606086013567ffffffffffffffff811115610a6857610a676107fe565b5b610a7488828901610979565b925050608086013567ffffffffffffffff811115610a9557610a946107fe565b5b610aa188828901610979565b9150509295509295909350565b600081519050919050565b600082825260208201905092915050565b6000819050602082019050919050565b600081519050919050565b600082825260208201905092915050565b60005b83811015610b14578082015181840152602081019050610af9565b83811115610b23576000848401525b50505050565b6000610b3482610ada565b610b3e8185610ae5565b9350610b4e818560208601610af6565b610b578161086b565b840191505092915050565b610b6b816109a7565b82525050565b60006080830160008301518482036000860152610b8e8282610b29565b9150506020830151610ba36020860182610b62565b5060408301518482036040860152610bbb8282610b29565b91505060608301518482036060860152610bd58282610b29565b9150508091505092915050565b6000610bee8383610b71565b905092915050565b6000602082019050919050565b6000610c0e82610aae565b610c188185610ab9565b935083602082028501610c2a85610aca565b8060005b85811015610c665784840389528151610c478582610be2565b9450610c5283610bf6565b925060208a01995050600181019050610c2e565b50829750879550505050505092915050565b60006020820190508181036000830152610c928184610c03565b905092915050565b600060208284031215610cb057610caf6107f9565b5b6000610cbe8482850161084c565b91505092915050565b610cd081610823565b82525050565b600082825260208201905092915050565b6000610cf282610ada565b610cfc8185610cd6565b9350610d0c818560208601610af6565b610d158161086b565b840191505092915050565b6000604082019050610d356000830185610cc7565b8181036020830152610d478184610ce7565b90509392505050565b7f4e487b7100000000000000000000000000000000000000000000000000000000600052602260045260246000fd5b60006002820490506001821680610d9757607f821691505b60208210811415610dab57610daa610d50565b5b5091905056fea2646970667358221220e10bd55e0063914b6e56fa8630bb8c9ad6bd7e7e9d1abf95bcd65274d31c835064736f6c634300080a0033",
    "linkReferences": {},
    "deployedLinkReferences": {}
}